:100000000C942A000C9447000C9447000C94470071
:100010000C9447000C9447000C9447000C94470044
:100020000C9447000C9447000C9447000C94470034
:100030000C9447000C9447000C9447000C94470024
:100040000C9447000C9447000C9447000C94470014
:100050000C94470011241FBECFE5D8E0DEBFCDBF12
:1000600012E0A0E6B0E0E8E5F3E002C005900D92F2
:10007000A234B107D9F722E0A2E4B2E001C01D9298
:10008000A334B207E1F70E9444010C94AA010C9436
:10009000000084EA86BF06B607FEFDCF089583B947
:1000A00084E886BF06B607FEFDCF0895CF93DF93A1
:1000B000C82FD62F0E9449008D2F0E944F008C2FF1
:1000C0000E944F0084E986BFDF91CF910895CF93BE
:1000D000C82F90914202892F8460809342026EE47F
:1000E0000E94560085E88A95F1F70000C295C07F0E
:1000F000809142026EE48C2B0E9456008091420255
:100100008B7F809342026EE40E94560085E88A95B8
:10011000F1F70000CF9108951F93CF93DF93182F2D
:10012000C82FD0E0D595C795D595C795D595C795D6
:10013000D595C795611109C0809142028E7F809349
:1001400042026EE40E94560008C080914202816023
:10015000809342026EE40E9456008C2F0E9467003A
:10016000812F0E946700DF91CF911F910895CF9357
:10017000C82F809142028160809342026EE40E9407
:1001800056008C2F82958F700E9467008C2F0E94E2
:100190006700CF9108958FE295E70197F1F700C0CE
:1001A000000083E00E9467008FE39FE10197F1F771
:1001B00000C0000083E00E94670087EC90E0019798
:1001C000F1F700C0000083E00E9467008FEC97E029
:1001D0000197F1F700C0000082E00E9467008FECF9
:1001E00097E00197F1F700C0000060E088E20E940C
:1001F0008C008FEC97E00197F1F700C0000060E001
:100200008CE00E948C008FEC97E00197F1F700C022
:10021000000060E086E00E948C008FEC97E0019780
:10022000F1F700C000008091420288608093420292
:100230006EE40E945600809142028D7F80934202BC
:100240006EE40E945600089560E081E00E948C00F8
:1002500087EB9BE00197F1F700C0000008951F9322
:10026000CF93DF93EC018881882351F010E00E9446
:10027000B7001F5FFE01E10FF11D80818111F7CFF3
:10028000DF91CF911F9108958FEF80B90E94CB002D
:100290000E94240180E690E00E942F0160E080EC43
:1002A0000E948C0080E890E00E942F01CDE0D0E019
:1002B0000E94240180914002909141029C012F5F95
:1002C0003F4F3093410220934002880F991F82953F
:1002D0009295907F9827807F9827805A9F4F0E9401
:1002E0002F012FEF80E792E0215080409040E1F70E
:1002F00000C0000060E080EC0E948C008091400211
:10030000909141029C012F5F3F4F30934102209317
:100310004002880F991F82959295907F9827807F41
:100320009827805A9F4F0E942F012FEF89E698E16E
:10033000215080409040E1F700C0000080914002D1
:10034000909141020F9709F0B3CFD0934102C0932F
:080350004002AECFF894FFCF8C
:10035800556E6974203100000000000000000000A4
:100368000000000000000000000000000000000085
:10037800556E697420320000000000000000000083
:100388000000000000000000000000000000000065
:10039800556E697420330000000000000000000062
:1003A8000000000000000000000000000000000045
:1003B800556E697420340000000000000000000041
:1003C8000000000000000000000000000000000025
:1003D800556E697420350000000000000000000020
:1003E8000000000000000000000000000000000005
:1003F800556E6974203600000000000000000000FF
:1004080000000000000000000000000000000000E4
:10041800556E6974203700000000000000000000DD
:1004280000000000000000000000000000000000C4
:10043800556E6974203800000000000000000000BC
:1004480000000000000000000000000000000000A4
:10045800556E69742039000000000000000000009B
:100468000000000000000000000000000000000084
:10047800556E697420313000000000000000000053
:100488000000000000000000000000000000000064
:10049800556E697420313100000000000000000032
:1004A8000000000000000000000000000000000044
:1004B800556E697420313200000000000000000011
:1004C8000000000000000000000000000000000024
:1004D800556E6974203133000000000000000000F0
:1004E8000000000000000000000000000000000004
:1004F800556E6974203134000000000000000000CF
:1005080000000000000000000000000000000000E3
:10051800556E6974203135000000000000000000AD
:1005280000000000000000000000000000000000C3
:020538000100C0
:00000001FF
